:100000000C9434000C94AD000C943E000C943E0013
:100010000C943E000C943E000C943E000C943E0068
:100020000C943E000C943E000C943E000C943E0058
:100030000C943E000C943E000C943E000C943E0048
:100040000C943E000C943E000C943E000C943E0038
:100050000C943E000C943E000C943E000C943E0028
:100060000C943E000C943E0011241FBECFEFD8E04C
:10007000DEBFCDBF0E94DA000C94E9000C940000B2
:10008000CF93DF93CDB7DEB78AE290E02AE230E08B
:10009000F90120812064FC0120838BE290E02BE2B7
:1000A00030E0F90120812F7BFC0120830000DF91EB
:1000B000CF910895CF93DF93CDB7DEB78AE290E07A
:1000C0002AE230E0F90120812B7FFC0120838BE2C2
:1000D00090E02BE230E0F90120812460FC012083D4
:1000E0000000DF91CF910895CF93DF93CDB7DEB7B6
:1000F000F8948DE390E02DE330E0F9012081206851
:10010000FC01208389E690E0FC01108278940000D5
:10011000DF91CF910895CF93DF93CDB7DEB78BE218
:1001200090E02BE230E0F90120812064FC01208383
:100130000000DF91CF910895CF93DF93CDB7DEB765
:100140008BE290E02BE230E0F90120812F7BFC0173
:1001500020830000DF91CF9108951F920F920090AD
:100160005F000F9211242F933F934F935F936F93F0
:100170007F938F939F93AF93BF93EF93FF93CF930F
:10018000DF93CDB7DEB70E948B000000DF91CF91E7
:10019000FF91EF91BF91AF919F918F917F916F915F
:1001A0005F914F913F912F910F9000925F000F90C0
:1001B0001F901895CF93DF93CDB7DEB70E94400014
:1001C0000E945A000E9474000E948B000E949C00B2
:0601D000FDCFF894FFCF03
:00000001FF
