:100000000C9434000C9451000C9451000C94510049
:100010000C9451000C9451000C9451000C9451001C
:100020000C9451000C9451000C9451000C9451000C
:100030000C9451000C9451000C9451000C945100FC
:100040000C9451000C9451000C9451000C945100EC
:100050000C9451000C9451000C9451000C945100DC
:100060000C9451000C94510011241FBECFEFD8E026
:10007000DEBFCDBF11E0A0E0B1E0E2E6FEE102C0EC
:1000800005900D92A433B107D9F721E0A4E3B1E0C4
:1000900001C01D92A034B207E1F70E94B6010C9492
:1000A0002F0F0C940000CF93DF93CDB7DEB7EE9700
:1000B0000FB6F894DEBF0FBECDBF80E2E0E0F1E006
:1000C000DE015F9601900D928A95E1F71A821982FE
:1000D00012C189819A8140970CF083C09E01215EF4
:1000E0003F4F89819A81820F931FFC019081898102
:1000F0008F5F492F682F81E00E94DE0A80E090E048
:10010000A8E4B3E48F839887A987BA8720E030E01A
:100110004AE755E46F81788589859A850E949A0E11
:10012000DC01CB018B879C87AD87BE8720E030E068
:1001300040E85FE36B857C858D859E850E94140E6B
:1001400088232CF481E090E0988B8F873FC020E0DB
:100150003FEF4FE757E46B857C858D859E850E9438
:10016000950E18164CF520E030E040E251E46F8126
:10017000788589859A850E949A0EDC01CB01BC01A5
:10018000CD010E94190EDC01CB01988B8F870FC027
:1001900080E991E09A8B898B89899A890197F1F797
:1001A0009A8B898B8F8598890197988B8F878F85FC
:1001B0009889892B69F79AC06B857C858D859E858A
:1001C0000E94190EDC01CB01988B8F878F8598894F
:1001D0009C8B8B8B8B899C890197F1F79C8B8B8BEC
:1001E00085C088E10E948A089E01215E3F4F898177
:1001F0009A81820F931FFC01908189818F5F492F23
:10020000682F81E00E94DE0A80E090E0A8E4B3E479
:100210008B839C83AD83BE8320E030E04AE755E4C6
:100220006B817C818D819E810E949A0EDC01CB01C5
:100230008D8B9E8BAF8BB88F20E030E040E85FE382
:100240006D897E898F89988D0E94140E88232CF4E5
:1002500081E090E09A8F898F3FC020E03FEF4FE729
:1002600057E46D897E898F89988D0E94950E1816A6
:100270004CF520E030E040E251E46B817C818D81DF
:100280009E810E949A0EDC01CB01BC01CD010E942F
:10029000190EDC01CB019A8F898F0FC080E991E0A4
:1002A0009C8F8B8F8B8D9C8D0197F1F79C8F8B8F03
:1002B000898D9A8D01979A8F898F898D9A8D892B37
:1002C00069F714C06D897E898F89988D0E94190EF7
:1002D000DC01CB019A8F898F898D9A8D9E8F8D8FAE
:1002E0008D8D9E8D0197F1F79E8F8D8F89819A81DB
:1002F00001969A8389839E01215E3F4F89819A816D
:10030000820F931FFC018081882309F0E2CE000058
:10031000EE960FB6F894DEBF0FBECDBFDF91CF9142
:100320000895CF93DF93CDB7DEB761970FB6F894FA
:10033000DEBF0FBECDBF21E1E0E2F1E0CE010196CC
:10034000DC0101900D922A95E1F7CE010196AC01F6
:1003500061E082E00E94600C000061960FB6F894A4
:10036000DEBF0FBECDBFDF91CF910895CF93DF9356
:10037000CDB7DEB76C970FB6F894DEBF0FBECDBF1A
:100380000E94B5020E94FD090E94D30A0E94940AAD
:100390000E94910180E090E0AAEFB4E489839A83FF
:1003A000AB83BC8320E030E04AE755E469817A8181
:1003B0008B819C810E949A0EDC01CB018B8B9C8BE4
:1003C000AD8BBE8B20E030E040E85FE36B897C8939
:1003D0008D899E890E94140E88232CF481E090E080
:1003E000988F8F8B3FC020E03FEF4FE757E46B893A
:1003F0007C898D899E890E94950E18164CF520E007
:1004000030E040E251E469817A818B819C810E94D5
:100410009A0EDC01CB01BC01CD010E94190EDC015A
:10042000CB01988F8F8B0FC080E991E09A8F898FD5
:10043000898D9A8D0197F1F79A8F898F8F89988D81
:100440000197988F8F8B8F89988D892B69F714C0AE
:100450006B897C898D899E890E94190EDC01CB01F4
:10046000988F8F8B8F89988D9C8F8B8F8B8D9C8D88
:100470000197F1F79C8F8B8F0E94D30A0E94940AF8
:100480000E94530080E090E0AAEFB4E48D839E8345
:10049000AF83B88720E030E04AE755E46D817E8184
:1004A0008F8198850E949A0EDC01CB0189879A87FB
:1004B000AB87BC8720E030E040E85FE369857A8560
:1004C0008B859C850E94140E88232CF481E090E09B
:1004D0009E878D873FC020E03FEF4FE757E4698557
:1004E0007A858B859C850E94950E18164CF520E028
:1004F00030E040E251E46D817E818F8198850E94D9
:100500009A0EDC01CB01BC01CD010E94190EDC0169
:10051000CB019E878D870FC080E991E0988B8F87F4
:100520008F8598890197F1F7988B8F878D859E85A8
:1005300001979E878D878D859E85892B69F714C0CD
:1005400069857A858B859C850E94190EDC01CB011B
:100550009E878D878D859E859A8B898B89899A89BF
:100560000197F1F79A8B898B0FCFCF93DF93CDB79C
:10057000DEB784E290E024E230E0F90120812760D8
:10058000FC0120838AE290E02AE230E0F901208138
:10059000206FFC01208385E290E025E230E0F90144
:1005A0002081287FFC0120838BE290E02BE230E069
:1005B000F90120812F70FC0120830000DF91CF9191
:1005C00008950F931F93CF93DF93CDB7DEB7C05736
:1005D000D1090FB6F894DEBF0FBECDBF80E090E02A
:1005E000A0E8BFE389839A83AB83BC838E0109595A
:1005F0001F4F20E030E04AE755E469817A818B8122
:100600009C810E949A0EDC01CB01F80180839183CA
:10061000A283B383CE0189599F4F20E030E040E8A8
:100620005FE3FC0160817181828193810E94140EDD
:1006300088234CF4CE0185599F4F21E030E0FC0126
:100640003183208369C0CE0189599F4F20E03FEF5D
:100650004FE757E4FC0160817181828193810E94A0
:10066000950E18160CF046C020E030E040E251E450
:1006700069817A818B819C810E949A0EDC01CB0179
:100680008E0105591F4FBC01CD010E94190EDC01DE
:10069000CB01F8019183808324C0CE0183599F4F01
:1006A00020E931E0FC0131832083CE0183599F4F43
:1006B000FC01808191810197F1F79E0123593F4F01
:1006C000F90191838083CE0185599F4F9E01255961
:1006D0003F4FF9012081318121503109FC013183E3
:1006E0002083CE0185599F4FFC0180819181892B08
:1006F000A1F62CC08E0105591F4FCE0189599F4F7D
:10070000FC0160817181828193810E94190EDC015C
:10071000CB01F80191838083CE0181599F4F9E01C7
:1007200025593F4FF90120813181FC01318320831C
:10073000CE0181599F4FFC01808191810197F1F792
:100740009E0121593F4FF9019183808385E290E01A
:1007500025E230E0F90120812E7FFC01208385E233
:1007600090E025E230E0F90120812B7FFC0120831D
:100770008BE290E020E3FC01208385E290E025E21B
:1007800030E0F90120812260FC01208380E090E0CC
:10079000A0EAB0E48D839E83AF83B8878E01035AAD
:1007A0001F4F20E030E04AE755E46D817E818F8164
:1007B00098850E949A0EDC01CB01F8018083918319
:1007C000A283B383CE01835A9F4F20E030E040E8FC
:1007D0005FE3FC0160817181828193810E94140E2C
:1007E00088234CF4CE018F599F4F21E030E0FC016B
:1007F0003183208369C0CE01835A9F4F20E03FEFB1
:100800004FE757E4FC0160817181828193810E94EE
:10081000950E18160CF046C020E030E040E251E49E
:100820006D817E818F8198850E949A0EDC01CB01BB
:100830008E010F591F4FBC01CD010E94190EDC0122
:10084000CB01F8019183808324C0CE018D599F4F45
:1008500020E931E0FC0131832083CE018D599F4F87
:10086000FC01808191810197F1F79E012D593F4F45
:10087000F90191838083CE018F599F4F9E012F599B
:100880003F4FF9012081318121503109FC01318331
:100890002083CE018F599F4FFC0180819181892B4C
:1008A000A1F62CC08E010F591F4FCE01835A9F4FC6
:1008B000FC0160817181828193810E94190EDC01AB
:1008C000CB01F80191838083CE018B599F4F9E010C
:1008D0002F593F4FF90120813181FC013183208361
:1008E000CE018B599F4FFC01808191810197F1F7D7
:1008F0009E012B593F4FF9019183808385E290E05F
:1009000025E230E0F90120812D7FFC01208380E089
:1009100090E0A0E8BFE389879A87AB87BC878E0108
:100920000D5A1F4F20E030E04AE755E469857A858B
:100930008B859C850E949A0EDC01CB01F801808397
:100940009183A283B383CE018D5A9F4F20E030E084
:1009500040E85FE3FC0160817181828193810E94A4
:10096000140E88234CF4CE01895A9F4F21E030E0C9
:10097000FC013183208369C0CE018D5A9F4F20E056
:100980003FEF4FE757E4FC016081718182819381E1
:100990000E94950E18160CF046C020E030E040E2B0
:1009A00051E469857A858B859C850E949A0EDC01CD
:1009B000CB018E01095A1F4FBC01CD010E94190EB7
:1009C000DC01CB01F8019183808324C0CE01875ADA
:1009D0009F4F20E931E0FC0131832083CE01875A0B
:1009E0009F4FFC01808191810197F1F79E01275A69
:1009F0003F4FF90191838083CE01895A9F4F9E0119
:100A0000295A3F4FF9012081318121503109FC01E0
:100A100031832083CE01895A9F4FFC0180819181CF
:100A2000892BA1F62CC08E01095A1F4FCE018D5A79
:100A30009F4FFC0160817181828193810E94190E18
:100A4000DC01CB01F80191838083CE01855A9F4F51
:100A50009E01295A3F4FF90120813181FC013183E8
:100A60002083CE01855A9F4FFC018081918101979F
:100A7000F1F79E01255A3F4FF9019183808385E26A
:100A800090E025E230E0F90120812E7FFC012083F7
:100A900085E290E025E230E0F90120812B7FFC0126
:100AA00020838BE290E020E3FC01208385E290E04C
:100AB00025E230E0F90120812260FC01208380E002
:100AC00090E0A0EAB0E48D879E87AF87B88B8E0157
:100AD000075B1F4F20E030E04AE755E46D857E85D7
:100AE0008F8598890E949A0EDC01CB01F8018083E2
:100AF0009183A283B383CE01875B9F4F20E030E0D8
:100B000040E85FE3FC0160817181828193810E94F2
:100B1000140E88234CF4CE01835B9F4F21E030E01C
:100B2000FC013183208369C0CE01875B9F4F20E0A9
:100B30003FEF4FE757E4FC0160817181828193812F
:100B40000E94950E18160CF046C020E030E040E2FE
:100B500051E46D857E858F8598890E949A0EDC010F
:100B6000CB018E01035B1F4FBC01CD010E94190E0A
:100B7000DC01CB01F8019183808324C0CE01815B2D
:100B80009F4F20E931E0FC0131832083CE01815B5E
:100B90009F4FFC01808191810197F1F79E01215BBC
:100BA0003F4FF90191838083CE01835B9F4F9E016C
:100BB000235B3F4FF9012081318121503109FC0134
:100BC00031832083CE01835B9F4FFC018081918123
:100BD000892BA1F62CC08E01035B1F4FCE01875BD2
:100BE0009F4FFC0160817181828193810E94190E67
:100BF000DC01CB01F80191838083CE018F5A9F4F96
:100C00009E01235B3F4FF90120813181FC0131833B
:100C10002083CE018F5A9F4FFC01808191810197E3
:100C2000F1F79E012F5A3F4FF9019183808385E2AE
:100C300090E025E230E0F90120812D7FFC01208346
:100C400080E090E0A0E8BFE3898B9A8BAB8BBC8BF4
:100C50008E01015C1F4F20E030E04AE755E46989CE
:100C60007A898B899C890E949A0EDC01CB01F8015C
:100C700080839183A283B383CE01CF9620E030E0BE
:100C800040E85FE3FC0160817181828193810E9471
:100C9000140E88234CF4CE018D5B9F4F21E030E091
:100CA000FC013183208367C0CE01CF9620E03FEF67
:100CB0004FE757E4FC0160817181828193810E943A
:100CC000950E18160CF046C020E030E040E251E4EA
:100CD00069897A898B899C890E949A0EDC01CB01F3
:100CE0008E010D5B1F4FBC01CD010E94190EDC016E
:100CF000CB01F8019183808324C0CE018B5B9F4F91
:100D000020E931E0FC0131832083CE018B5B9F4FD2
:100D1000FC01808191810197F1F79E012B5B3F4F90
:100D2000F90191838083CE018D5B9F4F9E012D5BE6
:100D30003F4FF9012081318121503109FC0131837C
:100D40002083CE018D5B9F4FFC0180819181892B97
:100D5000A1F62BC08E010D5B1F4FCE01CF96FC017B
:100D600060817181828193810E94190EDC01CB0127
:100D7000F80191838083CE01895B9F4F9E012D5B9B
:100D80003F4FF90120813181FC0131832083CE0165
:100D9000895B9F4FFC01808191810197F1F79E0152
:100DA000295B3F4FF9019183808385E290E025E242
:100DB00030E0F90120812E7FFC01208385E290E064
:100DC00025E230E0F90120812B7FFC0120838BE2BA
:100DD00090E020E3FC01208385E290E025E230E012
:100DE000F90120812260FC01208380E090E0A0EAEC
:100DF000B0E48D8B9E8BAF8BB88F20E030E04AE75C
:100E000055E46D897E898F89988D0E949A0EDC0148
:100E1000CB018DAB9EABAFABB8AF20E030E040E88C
:100E20005FE36DA97EA98FA998AD0E94140E882357
:100E30002CF481E090E09AAF89AF3FC020E03FEF13
:100E40004FE757E46DA97EA98FA998AD0E94950E32
:100E500018164CF520E030E040E251E46D897E89BF
:100E60008F89988D0E949A0EDC01CB01BC01CD01C7
:100E70000E94190EDC01CB019AAF89AF0FC080E947
:100E800091E09CAF8BAF8BAD9CAD0197F1F79CAF20
:100E90008BAF89AD9AAD01979AAF89AF89AD9AAD05
:100EA000892B69F714C06DA97EA98FA998AD0E94FE
:100EB000190EDC01CB019AAF89AF89AD9AAD9EAF17
:100EC0008DAF8DAD9EAD0197F1F79EAF8DAF85E2F1
:100ED00090E025E230E0F90120812D7FFC012083A4
:100EE00080E090E0A0E8BFE3898F9A8FAB8FBC8F42
:100EF00020E030E04AE755E4698D7A8D8B8D9C8D3A
:100F00000E949A0EDC01CB018BA79CA7ADA7BEA7C0
:100F100020E030E040E85FE36BA57CA58DA59EA5B1
:100F20000E94140E88232CF481E090E098AB8FA7E8
:100F30003FC020E03FEF4FE757E46BA57CA58DA5B0
:100F40009EA50E94950E18164CF520E030E040E278
:100F500051E4698D7A8D8B8D9C8D0E949A0EDC01F7
:100F6000CB01BC01CD010E94190EDC01CB0198AB75
:100F70008FA70FC080E991E09AAB89AB89A99AA9A4
:100F80000197F1F79AAB89AB8FA598A9019798AB18
:100F90008FA78FA598A9892B69F714C06BA57CA58D
:100FA0008DA59EA50E94190EDC01CB0198AB8FA7E1
:100FB0008FA598A99CAB8BAB8BA99CA90197F1F746
:100FC0009CAB8BAB85E290E025E230E0F90120811B
:100FD0002E7FFC01208385E290E025E230E0F901DC
:100FE00020812B7FFC0120838BE290E020E2FC013A
:100FF000208385E290E025E230E0F9012081226043
:10100000FC01208380E090E0A0EAB0E48D8F9E8F09
:10101000AF8FB8A320E030E04AE755E46D8D7E8DB8
:101020008F8D98A10E949A0EDC01CB0189A39AA30F
:10103000ABA3BCA320E030E040E85FE369A17AA164
:101040008BA19CA10E94140E88232CF481E090E0D7
:101050009EA38DA33FC020E03FEF4FE757E469A177
:101060007AA18BA19CA10E94950E18164CF520E048
:1010700030E040E251E46D8D7E8D8F8D98A10E940D
:101080009A0EDC01CB01BC01CD010E94190EDC01DE
:10109000CB019EA38DA30FC080E991E098A78FA3F9
:1010A0008FA198A50197F1F798A78FA38DA19EA175
:1010B00001979EA38DA38DA19EA1892B69F714C0D2
:1010C00069A17AA18BA19CA10E94190EDC01CB0120
:1010D0009EA38DA38DA19EA19AA789A789A59AA554
:1010E0000197F1F79AA789A785E290E025E230E021
:1010F000F90120812D7FFC0120830000C059DF4FC2
:101100000FB6F894DEBF0FBECDBFDF91CF911F9118
:101110000F910895CF93DF93CDB7DEB76E970FB6DB
:10112000F894DEBF0FBECDBF8E8F8E8D89838981EF
:10113000807F89838BE290E02BE230E0F90120810F
:101140002F70FC0120838BE290E02BE230E0F9016C
:1011500030812981232BFC01208385E290E025E268
:1011600030E0F90120812E7FFC01208385E290E0B0
:1011700025E230E0F90120812B7FFC01208385E20C
:1011800090E025E230E0F90120812260FC0120831B
:1011900080E090E0A0EAB0E48A839B83AC83BD83C7
:1011A00020E030E04AE755E46A817B818C819D81B3
:1011B0000E949A0EDC01CB018C8B9D8BAE8BBF8B7A
:1011C00020E030E040E85FE36C897D898E899F896B
:1011D0000E94140E88232CF481E090E0998F888F70
:1011E0003FC020E03FEF4FE757E46C897D898E894F
:1011F0009F890E94950E18164CF520E030E040E2E1
:1012000051E46A817B818C819D810E949A0EDC0170
:10121000CB01BC01CD010E94190EDC01CB01998FDD
:10122000888F0FC080E991E09B8F8A8F8A8D9B8D7C
:101230000197F1F79B8F8A8F888D998D0197998FF0
:10124000888F888D998D892B69F714C06C897D8969
:101250008E899F890E94190EDC01CB01998F888F9E
:10126000888D998D9D8F8C8F8C8D9D8D0197F1F739
:101270009D8F8C8F85E290E025E230E0F90120819E
:101280002D7FFC0120838E8D8F708E8F8E8D8295A9
:10129000807F8E8F8BE290E02BE230E0F90120819D
:1012A0002F70FC0120838BE290E02BE230E0F9010B
:1012B00030812E8D232BFC01208385E290E025E2F6
:1012C00030E0F90120812E7FFC01208385E290E04F
:1012D00025E230E0F90120812B7FFC01208385E2AB
:1012E00090E025E230E0F90120812260FC012083BA
:1012F00080E090E0A0EAB0E48E839F83A887B9875E
:1013000020E030E04AE755E46E817F818885998549
:101310000E949A0EDC01CB018A879B87AC87BD8730
:1013200020E030E040E85FE36A857B858C859D8521
:101330000E94140E88232CF481E090E09F878E8712
:101340003FC020E03FEF4FE757E46A857B858C85FF
:101350009D850E94950E18164CF520E030E040E285
:1013600051E46E817F81888599850E949A0EDC0107
:10137000CB01BC01CD010E94190EDC01CB019F877E
:101380008E870FC080E991E0998B888B8889998935
:101390000197F1F7998B888B8E859F8501979F87A1
:1013A0008E878E859F85892B69F714C06A857B851A
:1013B0008C859D850E94190EDC01CB019F878E874D
:1013C0008E859F859B8B8A8B8A899B890197F1F7F4
:1013D0009B8B8A8B85E290E025E230E0F901208149
:1013E0002D7FFC01208300006E960FB6F894DEBFBF
:1013F0000FBECDBFDF91CF910895CF93DF93CDB7CF
:10140000DEB72E970FB6F894DEBF0FBECDBF0E9499
:10141000E10280E090E0A0E8BFE389839A83AB8398
:10142000BC8320E030E04AE755E469817A818B8112
:101430009C810E949A0EDC01CB018D839E83AF8339
:10144000B88720E030E040E85FE36D817E818F81E6
:1014500098850E94140E88232CF481E090E09A87EE
:1014600089873FC020E03FEF4FE757E46D817E81E1
:101470008F8198850E94950E18164CF520E030E07B
:1014800040E251E469817A818B819C810E949A0EAD
:10149000DC01CB01BC01CD010E94190EDC01CB01A6
:1014A0009A8789870FC080E991E09C878B878B851D
:1014B0009C850197F1F79C878B8789859A85019791
:1014C0009A87898789859A85892B69F714C06D81E8
:1014D0007E818F8198850E94190EDC01CB019A874D
:1014E000898789859A859E878D878D859E850197B9
:1014F000F1F79E878D8788E20E948A0881E00E942A
:101500008A0886E00E948A088EE00E948A0880E8A5
:101510000E948A0800002E960FB6F894DEBF0FBE18
:10152000CDBFDF91CF910895CF93DF93CDB7DEB7D5
:1015300080E80E948A080000DF91CF910895CF9340
:10154000DF9300D0CDB7DEB789836A838981082E07
:10155000000C990B8230910589F0833091051CF4C1
:10156000019739F01AC08330910569F0049781F032
:1015700014C08A8181580E948A080FC08A818154D0
:101580000E948A080AC08A818D560E948A0805C076
:101590008A818D520E948A08000000000F900F90EF
:1015A000DF91CF910895CF93DF93CDB7DEB781E080
:1015B0000E948A080000DF91CF910895CF93DF93B6
:1015C000CDB7DEB7A0970FB6F894DEBF0FBECDBF84
:1015D0008E8F6F8F48A36F8D8E8D0E949F0A88A17A
:1015E00089838981807F89838BE290E02BE230E0E0
:1015F000F90120812F70FC0120838BE290E02BE227
:1016000030E0F9012081322F2981232BFC01208336
:1016100085E290E025E230E0F90120812160FC01C3
:10162000208385E290E025E230E0F90120812B7FE4
:10163000FC01208385E290E025E230E0F901208181
:101640002260FC01208380E090E0A0EAB0E48A837D
:101650009B83AC83BD8320E030E04AE755E46A8198
:101660007B818C819D810E949A0EDC01CB018C8B49
:101670009D8BAE8BBF8B20E030E040E85FE36C8950
:101680007D898E899F890E94140E88232CF481E025
:1016900090E0998F888F3FC020E03FEF4FE757E4FD
:1016A0006C897D898E899F890E94950E18164CF54C
:1016B00020E030E040E251E46A817B818C819D81B1
:1016C0000E949A0EDC01CB01BC01CD010E94190ED3
:1016D000DC01CB01998F888F0FC080E991E09B8F4F
:1016E0008A8F8A8D9B8D0197F1F79B8F8A8F888DCA
:1016F000998D0197998F888F888D998D892B69F79E
:1017000014C06C897D898E899F890E94190EDC0125
:10171000CB01998F888F888D998D9D8F8C8F8C8D23
:101720009D8D0197F1F79D8F8C8F85E290E025E2EA
:1017300030E0F90120812D7FFC01208388A18F708A
:1017400088A388A1082E000C990B82959295907F12
:101750009827807F982788A38BE290E02BE230E0E7
:10176000F90120812F70FC0120838BE290E02BE2B5
:1017700030E0F9012081322F28A1232BFC012083A6
:1017800085E290E025E230E0F90120812160FC0152
:10179000208385E290E025E230E0F90120812B7F73
:1017A000FC01208385E290E025E230E0F901208110
:1017B0002260FC01208380E090E0A0EAB0E48E8308
:1017C0009F83A887B98720E030E04AE755E46E811F
:1017D0007F81888599850E949A0EDC01CB018A87DA
:1017E0009B87AC87BD8720E030E040E85FE36A85F7
:1017F0007B858C859D850E94140E88232CF481E0C6
:1018000090E09F878E873FC020E03FEF4FE757E48F
:101810006A857B858C859D850E94950E18164CF5F2
:1018200020E030E040E251E46E817F818885998537
:101830000E949A0EDC01CB01BC01CD010E94190E61
:10184000DC01CB019F878E870FC080E991E0998BE7
:10185000888B888999890197F1F7998B888B8E8578
:101860009F8501979F878E878E859F85892B69F736
:1018700014C06A857B858C859D850E94190EDC01CC
:10188000CB019F878E878E859F859B8B8A8B8A89CC
:101890009B890197F1F79B8B8A8B85E290E025E28B
:1018A00030E0F90120812D7FFC0120830000A0960B
:1018B0000FB6F894DEBF0FBECDBFDF91CF91089574
:1018C000CF93DF9300D000D0CDB7DEB789836A8392
:1018D0005C834B8311C08B819C81FC018081482FEC
:1018E0006A8189810E94DE0A8B819C8101969C839A
:1018F0008B838A818F5F8A838B819C81FC018081AD
:10190000882349F700000F900F900F900F90DF9100
:10191000CF910895CF93DF93CDB7DEB727970FB65A
:10192000F894DEBF0FBECDBF8A836B835D834C838B
:101930003F832E836B818A810E949F0A8C819D81C7
:10194000992384F48C819D819195819591099D8342
:101950008C8341E351E06B818A810E94600C8B8112
:101960008F5F8B8319828A81882319F08B8188236A
:1019700019F40E94940A04C06B818A810E949F0A14
:101980008E819F81059719F089818130D9F48C81EE
:101990009D8120E137E2B9010E94DD0DCB01C096A7
:1019A00090933501809334018091340190913501F9
:1019B000482F6B818A810E94DE0A8B818F5F8B8327
:1019C00081E089838E819F81049719F0898181301C
:1019D000D9F58C819D8128EE33E0B9010E94DD0D9F
:1019E000CB0190933701809336014091360150919D
:1019F00037019A01ADECBCEC0E94F10D96958795EC
:101A00009695879596958795880F991F9C01220F2B
:101A1000331F220F331F820F931F9A01281B390B8C
:101A2000C901C09690933F0180933E0180913E0191
:101A300090913F01482F6B818A810E94DE0A8B8141
:101A40008F5F8B8381E089838E819F81039719F05B
:101A500089818130D9F58C819D8124E630E0B901FE
:101A60000E94DD0DCB0190933701809336014091A8
:101A70003601509137019A01ADECBCEC0E94F10D9A
:101A8000969587959695879596958795880F991F32
:101A90009C01220F331F220F331F820F931F9A01C5
:101AA000281B390BC901C09690933B0180933A01E2
:101AB00080913A0190913B01482F6B818A810E946D
:101AC000DE0A8B818F5F8B8381E089838E819F818A
:101AD000029719F089818130D9F58C819D812AE0A6
:101AE00030E0B9010E94DD0DCB0190933701809366
:101AF000360140913601509137019A01ADECBCECB2
:101B00000E94F10D96958795969587959695879560
:101B1000880F991F9C01220F331F220F331F820F42
:101B2000931F9A01281B390BC901C0969093390164
:101B3000809338018091380190913901482F6B8151
:101B40008A810E94DE0A8B818F5F8B8381E089838B
:101B50008E819F81019719F089818130C1F48C8138
:101B60009D812AE030E0B9010E94DD0DC09690937E
:101B70003D0180933C0180913C0190913D01482FB3
:101B80006B818A810E94DE0A8B818F5F8B838E81BD
:101B90009F81069744F045E46B818A810E94DE0AAA
:101BA0008B818F5F8B83000027960FB6F894DEBF82
:101BB0000FBECDBFDF91CF91089597FB072E16F48E
:101BC000009407D077FD09D00E94000E07FC05D0D5
:101BD0003EF4909581959F4F0895709561957F4F44
:101BE0000895A29FB001B39FC001A39F700D811DF6
:101BF0001124911DB29F700D811D1124911D089516
:101C0000AA1BBB1B51E107C0AA1FBB1FA617B70722
:101C100010F0A61BB70B881F991F5A95A9F780953E
:101C20009095BC01CD0108950E94480E08F481E012
:101C300008950E94740E88F09F5798F0B92F992745
:101C4000B751B0F0E1F0660F771F881F991F1AF0A7
:101C5000BA95C9F714C0B13091F00E948E0EB1E070
:101C600008950C948E0E672F782F8827B85F39F06F
:101C7000B93FCCF3869577956795B395D9F73EF440
:101C800090958095709561957F4F8F4F9F4F0895E8
:101C9000990F0008550FAA0BE0E8FEEF161617067D
:101CA000E807F907C0F012161306E407F50798F0E5
:101CB000621B730B840B950B39F40A2661F0232BFE
:101CC000242B252B21F408950A2609F4A140A6957A
:101CD0008FEF811D811D089557FD9058440F551FAA
:101CE00059F05F3F71F04795880F97FB991F61F09E
:101CF0009F3F79F087950895121613061406551F15
:101D0000F2CF4695F1DF08C0161617061806991F80
:101D1000F1CF86957105610508940895E894BB2775
:101D200066277727CB0197F908950E94480E08F49B
:101D30008FEF08950E94AD0E0C941E0F0E94100F9D
:101D400038F00E94170F20F0952311F00C94070F24
:101D50000C940D0F11240C948F0E0E946C0E70F3D6
:101D6000959FC1F3950F50E0551F629FF001729F40
:101D7000BB27F00DB11D639FAA27F00DB11DAA1F4F
:101D8000649F6627B00DA11D661F829F2227B00D9C
:101D9000A11D621F739FB00DA11D621F839FA00D27
:101DA000611D221F749F3327A00D611D231F849F77
:101DB000600D211D822F762F6A2F11249F575040CE
:101DC0009AF0F1F088234AF0EE0FFF1FBB1F661F49
:101DD000771F881F91505040A9F79E3F510580F012
:101DE0000C94070F0C948F0E5F3FE4F3983ED4F3EE
:101DF000869577956795B795F795E7959F5FC1F7B6
:101E0000FE2B880F911D9695879597F9089597F960
:101E10009F6780E870E060E008959FEF80EC089590
:101E200000240A94161617061806090608950024B9
:101E30000A9412161306140605060895092E039433
:101E4000000C11F4882352F0BB0F40F4BF2B11F4A7
:101E500060FF04C06F5F7F4F8F4F9F4F0895F894CE
:021E6000FFCFB2
:101E6200437261736820436F75727365202D20453C
:101E72006D6265646465642053797374656D730083
:101E8200652D59616E7472612041636164656D797B
:041E9200002D00001F
:00000001FF
