:100000000C9434000C943E000C943E000C943E0082
:100010000C943E000C943E000C943E000C943E0068
:100020000C943E000C943E000C943E000C943E0058
:100030000C943E000C943E000C943E000C943E0048
:100040000C943E000C943E000C943E000C943E0038
:100050000C943E000C943E000C943E000C943E0028
:100060000C943E000C943E0011241FBECFEFD8E04C
:10007000DEBFCDBF0E94C7000C9470020C9400003C
:10008000CF93DF93CDB7DEB787E290E027E230E091
:10009000F90120812F60FC01208388E290E028E2B2
:1000A00030E0F9012081207FFC0120830000DF91F6
:1000B000CF910895CF93DF93CDB7DEB78AE290E07A
:1000C0002AE230E0F90120812066FC0120838BE2E6
:1000D00090E02BE230E0F90120812066FC012083D2
:1000E0000000DF91CF910895CF93DF93CDB7DEB7B6
:1000F00088E290E028E230E0F90120812660FC01EE
:10010000208388E290E028E230E0F9012081267F18
:10011000FC0120830000DF91CF910895CF93DF93FE
:10012000CDB7DEB784E490E024E430E0F90120812B
:10013000216AFC01208385E490E023E0FC01208318
:1001400086E490E0FC01108287E490E0FC011082DC
:1001500088E490E0FC0110820000DF91CF910895C7
:10016000CF93DF9300D0CDB7DEB789836A8387E46E
:1001700090E02981FC01208388E490E02A81FC0141
:10018000208300000F900F90DF91CF910895CF93BF
:10019000DF93CDB7DEB72F970FB6F894DEBF0FBE53
:1001A000CDBF19820E945A000E948E000E9440001A
:1001B0000E9474008981809569810E94B0008981C4
:1001C0008F5F898380E090E0A0E2B1E48A839B8323
:1001D000AC83BD8320E030E04AE755E46A817B814F
:1001E0008C819D810E94DB01DC01CB018E839F838A
:1001F000A887B98720E030E040E85FE36E817F8127
:10020000888599850E94550188232CF481E090E02F
:100210009B878A873FC020E03FEF4FE757E46E811E
:100220007F81888599850E94D60118164CF520E0BB
:1002300030E040E251E46A817B818C819D810E94A3
:10024000DB01DC01CB01BC01CD010E945A01DC01C4
:10025000CB019B878A870FC080E991E09D878C87BF
:100260008C859D850197F1F79D878C878A859B8575
:1002700001979B878A878A859B85892B69F714C09C
:100280006E817F81888599850E945A01DC01CB01AE
:100290009B878A878A859B859F878E878E859F858A
:1002A0000197F1F79F878E8785CF0E94890108F417
:1002B00081E008950E94B50188F09F5798F0B92F0A
:1002C0009927B751B0F0E1F0660F771F881F991F8B
:1002D0001AF0BA95C9F714C0B13091F00E94CF015D
:1002E000B1E008950C94CF01672F782F8827B85F6D
:1002F00039F0B93FCCF3869577956795B395D9F7E3
:100300003EF490958095709561957F4F8F4F9F4FEC
:100310000895990F0008550FAA0BE0E8FEEF161696
:100320001706E807F907C0F012161306E407F507E9
:1003300098F0621B730B840B950B39F40A2661F05D
:10034000232B242B252B21F408950A2609F4A14000
:10035000A6958FEF811D811D089557FD9058440F7C
:10036000551F59F05F3F71F04795880F97FB991F14
:1003700061F09F3F79F087950895121613061406D1
:10038000551FF2CF4695F1DF08C01616170618065E
:10039000991FF1CF86957105610508940895E89439
:1003A000BB2766277727CB0197F908950E9489011B
:1003B00008F48FEF08950E94EE010C945F020E94F2
:1003C000510238F00E94580220F0952311F00C944D
:1003D00048020C944E0211240C94D0010E94AD01ED
:1003E00070F3959FC1F3950F50E0551F629FF00188
:1003F000729FBB27F00DB11D639FAA27F00DB11DA1
:10040000AA1F649F6627B00DA11D661F829F222729
:10041000B00DA11D621F739FB00DA11D621F839FB0
:10042000A00D611D221F749F3327A00D611D231F86
:10043000849F600D211D822F762F6A2F11249F57D4
:1004400050409AF0F1F088234AF0EE0FFF1FBB1FD7
:10045000661F771F881F91505040A9F79E3F510596
:1004600080F00C9448020C94D0015F3FE4F3983E76
:10047000D4F3869577956795B795F795E7959F5F40
:10048000C1F7FE2B880F911D9695879597F90895D2
:1004900097F99F6780E870E060E008959FEF80EC37
:1004A000089500240A9416161706180609060895DA
:1004B00000240A9412161306140605060895092E40
:1004C0000394000C11F4882352F0BB0F40F4BF2BAF
:1004D00011F460FF04C06F5F7F4F8F4F9F4F0895EF
:0404E000F894FFCFBE
:00000001FF
