:100000000C9434000C9451000C9451000C94510049
:100010000C9451000C9451000C9451000C9451001C
:100020000C9451000C9451000C9451000C9451000C
:100030000C9451000C9451000C9451000C945100FC
:100040000C9451000C9451000C9451000C945100EC
:100050000C9451000C9451000C9451000C945100DC
:100060000C9451000C94510011241FBECFEFD8E026
:10007000DEBFCDBF11E0A0E0B1E0EAEFF9E102C0E0
:1000800005900D92A232B107D9F721E0A2E2B1E0CA
:1000900001C01D92AE32B207E1F70E948F0B0C94A3
:1000A000FB0C0C940000CF93DF93CDB7DEB784E256
:1000B00090E024E230E0F90120812760FC012083F8
:1000C0008AE290E02AE230E0F9012081206FFC0111
:1000D000208385E290E025E230E0F9012081287F4D
:1000E000FC0120838BE290E02BE230E0F9012081DB
:1000F0002F70FC0120830000DF91CF9108950F93B2
:100100001F93CF93DF93CDB7DEB7C057D1090FB69A
:10011000F894DEBF0FBECDBF80E090E0A0E8BFE363
:1001200089839A83AB83BC838E0109591F4F20E0DA
:1001300030E04AE755E469817A818B819C810E9495
:10014000660CDC01CB01F80180839183A283B38329
:10015000CE0189599F4F20E030E040E85FE3FC0189
:1001600060817181828193810E94E00B88234CF42D
:10017000CE0185599F4F21E030E0FC01318320837F
:1001800069C0CE0189599F4F20E03FEF4FE757E408
:10019000FC0160817181828193810E94610C18163B
:1001A0000CF046C020E030E040E251E469817A8101
:1001B0008B819C810E94660CDC01CB018E0105596C
:1001C0001F4FBC01CD010E94E50BDC01CB01F80102
:1001D0009183808324C0CE0183599F4F20E931E071
:1001E000FC0131832083CE0183599F4FFC01808124
:1001F00091810197F1F79E0123593F4FF9019183B6
:100200008083CE0185599F4F9E0125593F4FF901AB
:100210002081318121503109FC0131832083CE01BD
:1002200085599F4FFC0180819181892BA1F62CC0BB
:100230008E0105591F4FCE0189599F4FFC016081E6
:100240007181828193810E94E50BDC01CB01F80171
:1002500091838083CE0181599F4F9E0125593F4F45
:10026000F90120813181FC0131832083CE01815944
:100270009F4FFC01808191810197F1F79E012159E7
:100280003F4FF9019183808385E290E025E230E0E1
:10029000F90120812E7FFC01208385E290E025E298
:1002A00030E0F90120812B7FFC0120838BE290E07C
:1002B00020E3FC01208385E290E025E230E0F901B3
:1002C00020812260FC01208380E090E0A0EAB0E47D
:1002D0008D839E83AF83B8878E01035A1F4F20E022
:1002E00030E04AE755E46D817E818F8198850E94D8
:1002F000660CDC01CB01F80180839183A283B38378
:10030000CE01835A9F4F20E030E040E85FE3FC01DC
:1003100060817181828193810E94E00B88234CF47B
:10032000CE018F599F4F21E030E0FC0131832083C3
:1003300069C0CE01835A9F4F20E03FEF4FE757E45B
:10034000FC0160817181828193810E94610C181689
:100350000CF046C020E030E040E251E46D817E8147
:100360008F8198850E94660CDC01CB018E010F59AC
:100370001F4FBC01CD010E94E50BDC01CB01F80150
:100380009183808324C0CE018D599F4F20E931E0B5
:10039000FC0131832083CE018D599F4FFC01808168
:1003A00091810197F1F79E012D593F4FF9019183FA
:1003B0008083CE018F599F4F9E012F593F4FF901E6
:1003C0002081318121503109FC0131832083CE010C
:1003D0008F599F4FFC0180819181892BA1F62CC000
:1003E0008E010F591F4FCE01835A9F4FFC01608130
:1003F0007181828193810E94E50BDC01CB01F801C0
:1004000091838083CE018B599F4F9E012F593F4F7F
:10041000F90120813181FC0131832083CE018B5988
:100420009F4FFC01808191810197F1F79E012B592B
:100430003F4FF9019183808385E290E025E230E02F
:10044000F90120812D7FFC01208380E090E0A0E86D
:10045000BFE389879A87AB87BC878E010D5A1F4FF0
:1004600020E030E04AE755E469857A858B859C85F4
:100470000E94660CDC01CB01F80180839183A2838A
:10048000B383CE018D5A9F4F20E030E040E85FE318
:10049000FC0160817181828193810E94E00B88233D
:1004A0004CF4CE01895A9F4F21E030E0FC013183AA
:1004B000208369C0CE018D5A9F4F20E03FEF4FE768
:1004C00057E4FC0160817181828193810E94610CFB
:1004D00018160CF046C020E030E040E251E4698597
:1004E0007A858B859C850E94660CDC01CB018E0190
:1004F000095A1F4FBC01CD010E94E50BDC01CB0165
:10050000F8019183808324C0CE01875A9F4F20E950
:1005100031E0FC0131832083CE01875A9F4FFC01DB
:10052000808191810197F1F79E01275A3F4FF90190
:1005300091838083CE01895A9F4F9E01295A3F4F54
:10054000F9012081318121503109FC01318320835F
:10055000CE01895A9F4FFC0180819181892BA1F6A0
:100560002CC08E01095A1F4FCE018D5A9F4FFC019E
:1005700060817181828193810E94E50BDC01CB0156
:10058000F80191838083CE01855A9F4F9E01295A9D
:100590003F4FF90120813181FC0131832083CE015D
:1005A000855A9F4FFC01808191810197F1F79E014F
:1005B000255A3F4FF9019183808385E290E025E23F
:1005C00030E0F90120812E7FFC01208385E290E05C
:1005D00025E230E0F90120812B7FFC0120838BE2B2
:1005E00090E020E3FC01208385E290E025E230E00A
:1005F000F90120812260FC01208380E090E0A0EAE4
:10060000B0E48D879E87AF87B88B8E01075B1F4F45
:1006100020E030E04AE755E46D857E858F85988936
:100620000E94660CDC01CB01F80180839183A283D8
:10063000B383CE01875B9F4F20E030E040E85FE36B
:10064000FC0160817181828193810E94E00B88238B
:100650004CF4CE01835B9F4F21E030E0FC013183FD
:10066000208369C0CE01875B9F4F20E03FEF4FE7BB
:1006700057E4FC0160817181828193810E94610C49
:1006800018160CF046C020E030E040E251E46D85E1
:100690007E858F8598890E94660CDC01CB018E01D6
:1006A000035B1F4FBC01CD010E94E50BDC01CB01B8
:1006B000F8019183808324C0CE01815B9F4F20E9A4
:1006C00031E0FC0131832083CE01815B9F4FFC012F
:1006D000808191810197F1F79E01215B3F4FF901E4
:1006E00091838083CE01835B9F4F9E01235B3F4FAD
:1006F000F9012081318121503109FC0131832083AE
:10070000CE01835B9F4FFC0180819181892BA1F6F3
:100710002CC08E01035B1F4FCE01875B9F4FFC01F6
:1007200060817181828193810E94E50BDC01CB01A4
:10073000F80191838083CE018F5A9F4F9E01235BE6
:100740003F4FF90120813181FC0131832083CE01AB
:100750008F5A9F4FFC01808191810197F1F79E0193
:100760002F5A3F4FF9019183808385E290E025E283
:1007700030E0F90120812D7FFC01208380E090E0B2
:10078000A0E8BFE3898B9A8BAB8BBC8B8E01015C9D
:100790001F4F20E030E04AE755E469897A898B8968
:1007A0009C890E94660CDC01CB01F8018083918357
:1007B000A283B383CE01CF9620E030E040E85FE330
:1007C000FC0160817181828193810E94E00B88230A
:1007D0004CF4CE018D5B9F4F21E030E0FC01318372
:1007E000208367C0CE01CF9620E03FEF4FE757E46C
:1007F000FC0160817181828193810E94610C1816D5
:100800000CF046C020E030E040E251E469897A898A
:100810008B899C890E94660CDC01CB018E010D5BEB
:100820001F4FBC01CD010E94E50BDC01CB01F8019B
:100830009183808324C0CE018B5B9F4F20E931E000
:10084000FC0131832083CE018B5B9F4FFC018081B3
:1008500091810197F1F79E012B5B3F4FF901918345
:100860008083CE018D5B9F4F9E012D5B3F4FF90131
:100870002081318121503109FC0131832083CE0157
:100880008D5B9F4FFC0180819181892BA1F62BC04C
:100890008E010D5B1F4FCE01CF96FC0160817181EF
:1008A000828193810E94E50BDC01CB01F8019183E9
:1008B0008083CE01895B9F4F9E012D5B3F4FF901E5
:1008C00020813181FC0131832083CE01895B9F4FE0
:1008D000FC01808191810197F1F79E01295B3F4FD7
:1008E000F9019183808385E290E025E230E0F9010F
:1008F00020812E7FFC01208385E290E025E230E01C
:10090000F90120812B7FFC0120838BE290E020E322
:10091000FC01208385E290E025E230E0F9012081AE
:100920002260FC01208380E090E0A0EAB0E48D8B9F
:100930009E8BAF8BB88F20E030E04AE755E46D899D
:100940007E898F89988D0E94660CDC01CB018DAB6E
:100950009EABAFABB8AF20E030E040E85FE36DA9FD
:100960007EA98FA998AD0E94E00B88232CF481E02A
:1009700090E09AAF89AF3FC020E03FEF4FE757E4E8
:100980006DA97EA98FA998AD0E94610C18164CF52F
:1009900020E030E040E251E46D897E898F89988DB6
:1009A0000E94660CDC01CB01BC01CD010E94E50B6D
:1009B000DC01CB019AAF89AF0FC080E991E09CAF19
:1009C0008BAF8BAD9CAD0197F1F79CAF8BAF89AD31
:1009D0009AAD01979AAF89AF89AD9AAD892B69F726
:1009E00014C06DA97EA98FA998AD0E94E50BDC010A
:1009F000CB019AAF89AF89AD9AAD9EAF8DAF8DAD6A
:100A00009EAD0197F1F79EAF8DAF85E290E025E2B4
:100A100030E0F90120812D7FFC01208380E090E00F
:100A2000A0E8BFE3898F9A8FAB8FBC8F20E030E0C6
:100A30004AE755E4698D7A8D8B8D9C8D0E94660CFA
:100A4000DC01CB018BA79CA7ADA7BEA720E030E0BF
:100A500040E85FE36BA57CA58DA59EA50E94E00BF9
:100A600088232CF481E090E098AB8FA73FC020E072
:100A70003FEF4FE757E46BA57CA58DA59EA50E948F
:100A8000610C18164CF520E030E040E251E4698D2D
:100A90007A8D8B8D9C8D0E94660CDC01CB01BC0194
:100AA000CD010E94E50BDC01CB0198AB8FA70FC0F5
:100AB00080E991E09AAB89AB89A99AA90197F1F7EE
:100AC0009AAB89AB8FA598A9019798AB8FA78FA5F3
:100AD00098A9892B69F714C06BA57CA58DA59EA547
:100AE0000E94E50BDC01CB0198AB8FA78FA598A9DD
:100AF0009CAB8BAB8BA99CA90197F1F79CAB8BAB03
:100B000085E290E025E230E0F90120812E7FFC01B2
:100B1000208385E290E025E230E0F90120812B7FFF
:100B2000FC0120838BE290E020E2FC01208385E23F
:100B300090E025E230E0F90120812260FC01208371
:100B400080E090E0A0EAB0E48D8F9E8FAF8FB8A3D5
:100B500020E030E04AE755E46D8D7E8D8F8D98A1C1
:100B60000E94660CDC01CB0189A39AA3ABA3BCA3B2
:100B700020E030E040E85FE369A17AA18BA19CA16D
:100B80000E94E00B88232CF481E090E09EA38DA3CB
:100B90003FC020E03FEF4FE757E469A17AA18BA166
:100BA0009CA10E94610C18164CF520E030E040E258
:100BB00051E46D8D7E8D8F8D98A10E94660CDC01B5
:100BC000CB01BC01CD010E94E50BDC01CB019EA352
:100BD0008DA30FC080E991E098A78FA38FA198A55E
:100BE0000197F1F798A78FA38DA19EA101979EA3CE
:100BF0008DA38DA19EA1892B69F714C069A17AA14B
:100C00008BA19CA10E94E50BDC01CB019EA38DA3CF
:100C10008DA19EA19AA789A789A59AA50197F1F709
:100C20009AA789A785E290E025E230E0F9012081CA
:100C30002D7FFC0120830000C059DF4F0FB6F894D0
:100C4000DEBF0FBECDBFDF91CF911F910F910895F1
:100C5000CF93DF93CDB7DEB76E970FB6F894DEBFB4
:100C60000FBECDBF8E8F8E8D89838981807F8983D2
:100C70008BE290E02BE230E0F90120812F70FC0143
:100C800020838BE290E02BE230E0F9013081298172
:100C9000232BFC01208385E290E025E230E0F9017E
:100CA00020812E7FFC01208385E290E025E230E068
:100CB000F90120812B7FFC01208385E290E025E271
:100CC00030E0F90120812260FC01208380E090E087
:100CD000A0EAB0E48A839B83AC83BD8320E030E04C
:100CE0004AE755E46A817B818C819D810E94660C74
:100CF000DC01CB018C8B9D8BAE8BBF8B20E030E079
:100D000040E85FE36C897D898E899F890E94E00BB2
:100D100088232CF481E090E0998F888F3FC020E0F9
:100D20003FEF4FE757E46C897D898E899F890E9448
:100D3000610C18164CF520E030E040E251E46A8185
:100D40007B818C819D810E94660CDC01CB01BC0102
:100D5000CD010E94E50BDC01CB01998F888F0FC07C
:100D600080E991E09B8F8A8F8A8D9B8D0197F1F7A7
:100D70009B8F8A8F888D998D0197998F888F888D09
:100D8000998D892B69F714C06C897D898E899F891B
:100D90000E94E50BDC01CB01998F888F888D998D9E
:100DA0009D8F8C8F8C8D9D8D0197F1F79D8F8C8FF2
:100DB00085E290E025E230E0F90120812D7FFC0101
:100DC00020838E8D8F708E8F8E8D8295807F8E8FFB
:100DD0008BE290E02BE230E0F90120812F70FC01E2
:100DE00020838BE290E02BE230E0F90130812E8D00
:100DF000232BFC01208385E290E025E230E0F9011D
:100E000020812E7FFC01208385E290E025E230E006
:100E1000F90120812B7FFC01208385E290E025E20F
:100E200030E0F90120812260FC01208380E090E025
:100E3000A0EAB0E48E839F83A887B98720E030E0E2
:100E40004AE755E46E817F81888599850E94660C0A
:100E5000DC01CB018A879B87AC87BD8720E030E02F
:100E600040E85FE36A857B858C859D850E94E00B69
:100E700088232CF481E090E09F878E873FC020E09C
:100E80003FEF4FE757E46A857B858C859D850E94FF
:100E9000610C18164CF520E030E040E251E46E8120
:100EA0007F81888599850E94660CDC01CB01BC019D
:100EB000CD010E94E50BDC01CB019F878E870FC01F
:100EC00080E991E0998B888B888999890197F1F75E
:100ED000998B888B8E859F8501979F878E878E85BE
:100EE0009F85892B69F714C06A857B858C859D85D4
:100EF0000E94E50BDC01CB019F878E878E859F8545
:100F00009B8B8A8B8A899B890197F1F79B8B8A8BB4
:100F100085E290E025E230E0F90120812D7FFC019F
:100F2000208300006E960FB6F894DEBF0FBECDBFD3
:100F3000DF91CF910895CF93DF93CDB7DEB72E9792
:100F40000FB6F894DEBF0FBECDBF0E947F0080E0D9
:100F500090E0A0E8BFE389839A83AB83BC8320E061
:100F600030E04AE755E469817A818B819C810E9457
:100F7000660CDC01CB018D839E83AF83B88720E0B4
:100F800030E040E85FE36D817E818F8198850E942B
:100F9000E00B88232CF481E090E09A8789873FC09A
:100FA00020E03FEF4FE757E46D817E818F81988588
:100FB0000E94610C18164CF520E030E040E251E44C
:100FC00069817A818B819C810E94660CDC01CB0156
:100FD000BC01CD010E94E50BDC01CB019A8789871A
:100FE0000FC080E991E09C878B878B859C8501975A
:100FF000F1F79C878B8789859A8501979A878987DE
:1010000089859A85892B69F714C06D817E818F81CE
:1010100098850E94E50BDC01CB019A878987898539
:101020009A859E878D878D859E850197F1F79E878E
:101030008D8788E20E94280681E00E94280686E0CB
:101040000E9428068EE00E94280680E80E9428065A
:1010500000002E960FB6F894DEBF0FBECDBFDF9115
:10106000CF910895CF93DF93CDB7DEB780E80E948C
:1010700028060000DF91CF910895CF93DF9300D031
:10108000CDB7DEB789836A838981082E000C990B5E
:101090008230910589F0833091051CF4019739F075
:1010A0001AC08330910569F0049781F014C08A81D9
:1010B00081580E9428060FC08A8181540E94280608
:1010C0000AC08A818D560E94280605C08A818D52E9
:1010D0000E942806000000000F900F90DF91CF9132
:1010E0000895CF93DF93CDB7DEB781E00E94280645
:1010F0000000DF91CF910895CF93DF93CDB7DEB796
:10110000A0970FB6F894DEBF0FBECDBF8E8F6F8F46
:1011100048A36F8D8E8D0E943D0888A189838981A7
:10112000807F89838BE290E02BE230E0F90120811F
:101130002F70FC0120838BE290E02BE230E0F9017C
:101140002081322F2981232BFC01208385E290E02E
:1011500025E230E0F90120812160FC01208385E255
:1011600090E025E230E0F90120812B7FFC01208313
:1011700085E290E025E230E0F90120812260FC0167
:10118000208380E090E0A0EAB0E48A839B83AC8374
:10119000BD8320E030E04AE755E46A817B818C81A1
:1011A0009D810E94660CDC01CB018C8B9D8BAE8BEC
:1011B000BF8B20E030E040E85FE36C897D898E8959
:1011C0009F890E94E00B88232CF481E090E0998FA6
:1011D000888F3FC020E03FEF4FE757E46C897D895F
:1011E0008E899F890E94610C18164CF520E030E032
:1011F00040E251E46A817B818C819D810E94660C72
:10120000DC01CB01BC01CD010E94E50BDC01CB016F
:10121000998F888F0FC080E991E09B8F8A8F8A8D8C
:101220009B8D0197F1F79B8F8A8F888D998D019700
:10123000998F888F888D998D892B69F714C06C8957
:101240007D898E899F890E94E50BDC01CB01998FF6
:10125000888F888D998D9D8F8C8F8C8D9D8D01971A
:10126000F1F79D8F8C8F85E290E025E230E0F90167
:1012700020812D7FFC01208388A18F7088A388A105
:10128000082E000C990B82959295907F9827807F6D
:10129000982788A38BE290E02BE230E0F9012081CF
:1012A0002F70FC0120838BE290E02BE230E0F9010B
:1012B0002081322F28A1232BFC01208385E290E09E
:1012C00025E230E0F90120812160FC01208385E2E4
:1012D00090E025E230E0F90120812B7FFC012083A2
:1012E00085E290E025E230E0F90120812260FC01F6
:1012F000208380E090E0A0EAB0E48E839F83A887FB
:10130000B98720E030E04AE755E46E817F81888527
:1013100099850E94660CDC01CB018A879B87AC878C
:10132000BD8720E030E040E85FE36A857B858C85FF
:101330009D850E94E00B88232CF481E090E09F873C
:101340008E873FC020E03FEF4FE757E46A857B85FB
:101350008C859D850E94610C18164CF520E030E0CC
:1013600040E251E46E817F81888599850E94660CF8
:10137000DC01CB01BC01CD010E94E50BDC01CB01FE
:101380009F878E870FC080E991E0998B888B888931
:1013900099890197F1F7998B888B8E859F850197A5
:1013A0009F878E878E859F85892B69F714C06A85F4
:1013B0007B858C859D850E94E50BDC01CB019F8799
:1013C0008E878E859F859B8B8A8B8A899B890197C7
:1013D000F1F79B8B8A8B85E290E025E230E0F90102
:1013E00020812D7FFC0120830000A0960FB6F89489
:1013F000DEBF0FBECDBFDF91CF910895CF93DF93B6
:1014000000D000D0CDB7DEB789836A835C834B837D
:1014100011C08B819C81FC018081482F6A81898168
:101420000E947C088B819C8101969C838B838A819E
:101430008F5F8A838B819C81FC018081882349F79F
:1014400000000F900F900F900F90DF91CF910895B3
:10145000CF93DF93CDB7DEB727970FB6F894DEBFF3
:101460000FBECDBF8A836B835D834C833F832E8306
:101470006B818A810E943D088C819D81992384F42F
:101480008C819D819195819591099D838C8340E00C
:1014900051E06B818A810E94FE098B818F5F8B8373
:1014A00019828A81882319F08B81882319F40E947C
:1014B000320804C06B818A810E943D088E819F8121
:1014C000059719F089818130D9F48C819D8120E1C3
:1014D00037E2B9010E94A90BCB01C096909323017A
:1014E000809322018091220190912301482F6B81EA
:1014F0008A810E947C088B818F5F8B8381E0898346
:101500008E819F81049719F089818130D9F58C8172
:101510009D8128EE33E0B9010E94A90BCB01909385
:1015200025018093240140912401509125019A01C5
:10153000ADECBCEC0E94BD0B969587959695879572
:1015400096958795880F991F9C01220F331F220FB4
:10155000331F820F931F9A01281B390BC901C096B4
:1015600090932D0180932C0180912C0190912D015D
:10157000482F6B818A810E947C088B818F5F8B83CF
:1015800081E089838E819F81039719F08981813061
:10159000D9F58C819D8124E630E0B9010E94A90B28
:1015A000CB01909325018093240140912401509117
:1015B00025019A01ADECBCEC0E94BD0B9695879578
:1015C0009695879596958795880F991F9C01220F70
:1015D000331F220F331F820F931F9A01281B390BD1
:1015E000C901C09690932901809328018091280118
:1015F00090912901482F6B818A810E947C088B8100
:101600008F5F8B8381E089838E819F81029719F0A0
:1016100089818130D9F58C819D812AE030E0B90142
:101620000E94A90BCB019093250180932401409146
:101630002401509125019A01ADECBCEC0E94BD0B38
:10164000969587959695879596958795880F991F76
:101650009C01220F331F220F331F820F931F9A0109
:10166000281B390BC901C09690932701809326014E
:101670008091260190912701482F6B818A810E94D9
:101680007C088B818F5F8B8381E089838E819F8132
:10169000019719F089818130C1F48C819D812AE004
:1016A00030E0B9010E94A90BC09690932B01809362
:1016B0002A0180912A0190912B01482F6B818A8108
:1016C0000E947C088B818F5F8B838E819F81069720
:1016D00044F045E46B818A810E947C088B818F5F96
:1016E0008B83000027960FB6F894DEBF0FBECDBFE8
:1016F000DF91CF910895CF93DF93CDB7DEB742E06E
:1017000051E061E081E00E94FE0943E151E061E0C7
:1017100082E00E94FE090000DF91CF910895CF93EF
:10172000DF931F92CDB7DEB70E9453000E949B0744
:101730000E9471080E947B0B19824CE151E061E02C
:1017400081E00E94FE0980E090E00F90DF91CF9150
:10175000089597FB072E16F4009407D077FD09D063
:101760000E94CC0B07FC05D03EF4909581959F4FCD
:101770000895709561957F4F0895A29FB001B39F22
:10178000C001A39F700D811D1124911DB29F700D8A
:10179000811D1124911D0895AA1BBB1B51E107C097
:1017A000AA1FBB1FA617B70710F0A61BB70B881FF1
:1017B000991F5A95A9F780959095BC01CD01089580
:1017C0000E94140C08F481E008950E94400C88F0F7
:1017D0009F5798F0B92F9927B751B0F0E1F0660FF5
:1017E000771F881F991F1AF0BA95C9F714C0B13036
:1017F00091F00E945A0CB1E008950C945A0C672F96
:10180000782F8827B85F39F0B93FCCF38695779564
:101810006795B395D9F73EF490958095709561954D
:101820007F4F8F4F9F4F0895990F0008550FAA0BB8
:10183000E0E8FEEF16161706E807F907C0F01216E3
:101840001306E407F50798F0621B730B840B950BE6
:1018500039F40A2661F0232B242B252B21F408953B
:101860000A2609F4A140A6958FEF811D811D0895D8
:1018700057FD9058440F551F59F05F3F71F0479541
:10188000880F97FB991F61F09F3F79F08795089526
:10189000121613061406551FF2CF4695F1DF08C045
:1018A000161617061806991FF1CF86957105610562
:1018B00008940895E894BB2766277727CB0197F90A
:1018C00008950E94140C08F48FEF08950E94790C7B
:1018D0000C94EA0C0E94DC0C38F00E94E30C20F01F
:1018E000952311F00C94D30C0C94D90C11240C9466
:1018F0005B0C0E94380C70F3959FC1F3950F50E07C
:10190000551F629FF001729FBB27F00DB11D639FB1
:10191000AA27F00DB11DAA1F649F6627B00DA11D57
:10192000661F829F2227B00DA11D621F739FB00DFD
:10193000A11D621F839FA00D611D221F749F33276D
:10194000A00D611D231F849F600D211D822F762F06
:101950006A2F11249F5750409AF0F1F088234AF0E3
:10196000EE0FFF1FBB1F661F771F881F915050404F
:10197000A9F79E3F510580F00C94D30C0C945B0C9E
:101980005F3FE4F3983ED4F3869577956795B795D6
:10199000F795E7959F5FC1F7FE2B880F911D9695F0
:1019A000879597F9089597F99F6780E870E060E060
:1019B00008959FEF80EC089500240A9416161706E8
:1019C00018060906089500240A9412161306140630
:1019D00005060895092E0394000C11F4882352F093
:1019E000BB0F40F4BF2B11F460FF04C06F5F7F4F4B
:0A19F0008F4F9F4F0895F894FFCF2A
:1019FA002D00483A202020443A202020204F3A2027
:101A0A0020200042696E6172793A200068656C6C28
:021A1A006F005B
:00000001FF
