:100000000C9434000C9451000C9451000C94510049
:100010000C9451000C9451000C9451000C9451001C
:100020000C9451000C9451000C9451000C9451000C
:100030000C9451000C9451000C9451000C945100FC
:100040000C9451000C9451000C9451000C945100EC
:100050000C9451000C942C010C9451000C94510000
:100060000C9451000C94510011241FBECFEFD8E026
:10007000DEBFCDBF11E0A0E0B1E0EAE7F3E202C0ED
:1000800005900D92A232B107D9F721E0A2E2B1E0CA
:1000900001C01D92A033B207E1F70E947D010C94CC
:1000A000BB110C940000CF93DF93CDB7DEB787E28E
:1000B00090E027E230E0F90120812E7FFC012083CF
:1000C00088E290E028E230E0F90120812E7FFC01F7
:1000D00020830000DF91CF910895CF93DF93CDB7B8
:1000E000DEB7F8948AE790E02AE730E0F901208152
:1000F0002868FC0120838AE790E02AE730E0F901D4
:1001000020812660FC0120838AE790E02AE730E026
:10011000F90120812E7FFC0120838AE790E02AE705
:1001200030E0F90120812F78FC0120838BE790E0FB
:100130002BE730E0F9012081207BFC0120838CE754
:1001400090E02CE730E0F90120812064FC0120835D
:100150008CE790E02CE730E0F90120812F77FC015B
:1001600020838CE790E02CE730E0F9012081207EAD
:10017000FC0120838CE790E02CE730E0F90120813E
:100180002F7DFC01208380E590E020E530E0F9013F
:1001900020812068FC01208378940000DF91CF91BA
:1001A0000895CF93DF931F92CDB7DEB789838981FE
:1001B000883068F48CE790E02CE730E0F90120818A
:1001C000322F29812770232BFC01208315C08BE758
:1001D00090E02BE730E0F90120812860FC012083CA
:1001E0008CE790E02CE730E0F9012081322F298163
:1001F0002770232BFC01208300000F90DF91CF910B
:100200000895CF93DF93CDB7DEB78AE790E02AE772
:1002100030E0F90120812064FC0120830000DF919F
:10022000CF910895CF93DF93CDB7DEB78BE790E002
:100230002BE730E0F9012081277FFC0120838CE748
:1002400090E02CE730E0F9012081207EFC01208342
:100250000000DF91CF9108951F920F9200905F00F0
:100260000F9211242F933F934F935F936F937F933C
:100270008F939F93AF93BF93EF93FF93CF93DF93AE
:10028000CDB7DEB789E790E0FC018081882F90E050
:10029000382F222788E790E0FC018081882F90E0AA
:1002A000822B932B90932301809322010E941201B1
:1002B0000000DF91CF91FF91EF91BF91AF919F919E
:1002C0008F917F916F915F914F913F912F910F90FF
:1002D00000925F000F901F901895CF93DF931F92AD
:1002E000CDB7DEB7898389810E94D1000E940101C8
:1002F00000000F90DF91CF910895CF93DF93CDB79A
:10030000DEB7C656D1090FB6F894DEBF0FBECDBF1B
:100310000E9453000E946D000E94E6010E942E0977
:1003200087E690E00E940E0D80E00E946D018AE752
:1003300090E0FC018081882F90E080749927892BC0
:10034000B1F780912201909123019A8389838A8158
:100350008F9389818F9380E091E0892F8F9380E044
:1003600091E08F93CE01C596292F2F938F930E94F2
:10037000D10E0F900F900F900F900F900F90CE0115
:10038000C596AC0161E081E00E94910B8A818F9358
:1003900089818F938FE091E0892F8F938FE091E097
:1003A0008F93CE010396292F2F938F930E94D10E06
:1003B0000F900F900F900F900F900F90CE0103961B
:1003C0000E94600D80E00E946D01B1CFCF93DF935A
:1003D000CDB7DEB784E290E024E230E0F90120817D
:1003E0002760FC0120838AE290E02AE230E0F901F4
:1003F0002081206FFC01208385E290E025E230E03F
:10040000F9012081287FFC0120838BE290E02BE220
:1004100030E0F90120812F70FC0120830000DF9182
:10042000CF9108950F931F93CF93DF93CDB7DEB78E
:10043000C057D1090FB6F894DEBF0FBECDBF80E024
:1004400090E0A0E8BFE389839A83AB83BC838E01ED
:1004500009591F4F20E030E04AE755E469817A816D
:100460008B819C810E943C0EDC01CB01F8018083D2
:100470009183A283B383CE0189599F4F20E030E05E
:1004800040E85FE3FC0160817181828193810E9479
:10049000B60D88234CF4CE0185599F4F21E030E002
:1004A000FC013183208369C0CE0189599F4F20E030
:1004B0003FEF4FE757E4FC016081718182819381B6
:1004C0000E94370E18160CF046C020E030E040E2E3
:1004D00051E469817A818B819C810E943C0EDC0110
:1004E000CB018E0105591F4FBC01CD010E94BB0DF0
:1004F000DC01CB01F8019183808324C0CE018359B4
:100500009F4F20E931E0FC0131832083CE018359E4
:100510009F4FFC01808191810197F1F79E01235942
:100520003F4FF90191838083CE0185599F4F9E01F2
:1005300025593F4FF9012081318121503109FC01BA
:1005400031832083CE0185599F4FFC0180819181A9
:10055000892BA1F62CC08E0105591F4FCE01895958
:100560009F4FFC0160817181828193810E94BB0D4C
:10057000DC01CB01F80191838083CE0181599F4F2B
:100580009E0125593F4FF90120813181FC013183C2
:100590002083CE0181599F4FFC0180819181019779
:1005A000F1F79E0121593F4FF9019183808385E244
:1005B00090E025E230E0F90120812E7FFC012083CC
:1005C00085E290E025E230E0F90120812B7FFC01FB
:1005D00020838BE290E020E3FC01208385E290E021
:1005E00025E230E0F90120812260FC01208380E0D7
:1005F00090E0A0EAB0E48D839E83AF83B8878E013C
:10060000035A1F4F20E030E04AE755E46D817E81B8
:100610008F8198850E943C0EDC01CB01F80180831C
:100620009183A283B383CE01835A9F4F20E030E0B1
:1006300040E85FE3FC0160817181828193810E94C7
:10064000B60D88234CF4CE018F599F4F21E030E046
:10065000FC013183208369C0CE01835A9F4F20E083
:100660003FEF4FE757E4FC01608171818281938104
:100670000E94370E18160CF046C020E030E040E231
:1006800051E46D817E818F8198850E943C0EDC0152
:10069000CB018E010F591F4FBC01CD010E94BB0D34
:1006A000DC01CB01F8019183808324C0CE018D59F8
:1006B0009F4F20E931E0FC0131832083CE018D5929
:1006C0009F4FFC01808191810197F1F79E012D5987
:1006D0003F4FF90191838083CE018F599F4F9E0137
:1006E0002F593F4FF9012081318121503109FC01FF
:1006F00031832083CE018F599F4FFC0180819181EE
:10070000892BA1F62CC08E010F591F4FCE01835AA1
:100710009F4FFC0160817181828193810E94BB0D9A
:10072000DC01CB01F80191838083CE018B599F4F6F
:100730009E012F593F4FF90120813181FC01318306
:100740002083CE018B599F4FFC01808191810197BD
:10075000F1F79E012B593F4FF9019183808385E288
:1007600090E025E230E0F90120812D7FFC0120831B
:1007700080E090E0A0E8BFE389879A87AB87BC87D9
:100780008E010D5A1F4F20E030E04AE755E469859D
:100790007A858B859C850E943C0EDC01CB01F8019B
:1007A00080839183A283B383CE018D5A9F4F20E033
:1007B00030E040E85FE3FC016081718182819381D8
:1007C0000E94B60D88234CF4CE01895A9F4F21E038
:1007D00030E0FC013183208369C0CE018D5A9F4FE8
:1007E00020E03FEF4FE757E4FC0160817181828197
:1007F00093810E94370E18160CF046C020E030E0BE
:1008000040E251E469857A858B859C850E943C0E87
:10081000DC01CB018E01095A1F4FBC01CD010E94A2
:10082000BB0DDC01CB01F8019183808324C0CE0194
:10083000875A9F4F20E931E0FC0131832083CE01AC
:10084000875A9F4FFC01808191810197F1F79E01AA
:10085000275A3F4FF90191838083CE01895A9F4FD8
:100860009E01295A3F4FF9012081318121503109E0
:10087000FC0131832083CE01895A9F4FFC01808186
:100880009181892BA1F62CC08E01095A1F4FCE01F0
:100890008D5A9F4FFC0160817181828193810E94FA
:1008A000BB0DDC01CB01F80191838083CE01855A19
:1008B0009F4F9E01295A3F4FF90120813181FC0150
:1008C00031832083CE01855A9F4FFC018081918125
:1008D0000197F1F79E01255A3F4FF90191838083DB
:1008E00085E290E025E230E0F90120812E7FFC01D5
:1008F000208385E290E025E230E0F90120812B7F22
:10090000FC0120838BE290E020E3FC01208385E260
:1009100090E025E230E0F90120812260FC01208393
:1009200080E090E0A0EAB0E48D879E87AF87B88B27
:100930008E01075B1F4F20E030E04AE755E46D85EC
:100940007E858F8598890E943C0EDC01CB01F801E1
:1009500080839183A283B383CE01875B9F4F20E086
:1009600030E040E85FE3FC01608171818281938126
:100970000E94B60D88234CF4CE01835B9F4F21E08B
:1009800030E0FC013183208369C0CE01875B9F4F3B
:1009900020E03FEF4FE757E4FC01608171818281E5
:1009A00093810E94370E18160CF046C020E030E00C
:1009B00040E251E46D857E858F8598890E943C0ECA
:1009C000DC01CB018E01035B1F4FBC01CD010E94F6
:1009D000BB0DDC01CB01F8019183808324C0CE01E3
:1009E000815B9F4F20E931E0FC0131832083CE0100
:1009F000815B9F4FFC01808191810197F1F79E01FE
:100A0000215B3F4FF90191838083CE01835B9F4F30
:100A10009E01235B3F4FF901208131812150310933
:100A2000FC0131832083CE01835B9F4FFC018081D9
:100A30009181892BA1F62CC08E01035B1F4FCE0143
:100A4000875B9F4FFC0160817181828193810E944D
:100A5000BB0DDC01CB01F80191838083CE018F5A5D
:100A60009F4F9E01235B3F4FF90120813181FC01A3
:100A700031832083CE018F5A9F4FFC018081918169
:100A80000197F1F79E012F5A3F4FF901918380831F
:100A900085E290E025E230E0F90120812D7FFC0124
:100AA000208380E090E0A0E8BFE3898B9A8BAB8B3A
:100AB000BC8B8E01015C1F4F20E030E04AE755E41B
:100AC00069897A898B899C890E943C0EDC01CB0163
:100AD000F80180839183A283B383CE01CF9620E077
:100AE00030E040E85FE3FC016081718182819381A5
:100AF0000E94B60D88234CF4CE018D5B9F4F21E000
:100B000030E0FC013183208367C0CE01CF9620E026
:100B10003FEF4FE757E4FC0160817181828193814F
:100B20000E94370E18160CF046C020E030E040E27C
:100B300051E469897A898B899C890E943C0EDC0189
:100B4000CB018E010D5B1F4FBC01CD010E94BB0D7F
:100B5000DC01CB01F8019183808324C0CE018B5B43
:100B60009F4F20E931E0FC0131832083CE018B5B74
:100B70009F4FFC01808191810197F1F79E012B5BD2
:100B80003F4FF90191838083CE018D5B9F4F9E0182
:100B90002D5B3F4FF9012081318121503109FC014A
:100BA00031832083CE018D5B9F4FFC018081918139
:100BB000892BA1F62BC08E010D5B1F4FCE01CF9666
:100BC000FC0160817181828193810E94BB0DDC01F7
:100BD000CB01F80191838083CE01895B9F4F9E01F9
:100BE0002D5B3F4FF90120813181FC01318320834E
:100BF000CE01895B9F4FFC01808191810197F1F7C4
:100C00009E01295B3F4FF9019183808385E290E04B
:100C100025E230E0F90120812E7FFC01208385E26E
:100C200090E025E230E0F90120812B7FFC01208358
:100C30008BE290E020E3FC01208385E290E025E256
:100C400030E0F90120812260FC01208380E090E007
:100C5000A0EAB0E48D8B9E8BAF8BB88F20E030E0A4
:100C60004AE755E46D897E898F89988D0E943C0EF4
:100C7000DC01CB018DAB9EABAFABB8AF20E030E079
:100C800040E85FE36DA97EA98FA998AD0E94B60DDB
:100C900088232CF481E090E09AAF89AF3FC020E038
:100CA0003FEF4FE757E46DA97EA98FA998AD0E9449
:100CB000370E18164CF520E030E040E251E46D8923
:100CC0007E898F89988D0E943C0EDC01CB01BC018E
:100CD000CD010E94BB0DDC01CB019AAF89AF0FC0E3
:100CE00080E991E09CAF8BAF8BAD9CAD0197F1F7A4
:100CF0009CAF8BAF89AD9AAD01979AAF89AF89ADA3
:100D00009AAD892B69F714C06DA97EA98FA998ADFA
:100D10000E94BB0DDC01CB019AAF89AF89AD9AADC2
:100D20009EAF8DAF8DAD9EAD0197F1F79EAF8DAFAC
:100D300085E290E025E230E0F90120812D7FFC0181
:100D4000208380E090E0A0E8BFE3898F9A8FAB8F8B
:100D5000BC8F20E030E04AE755E4698D7A8D8B8DB9
:100D60009C8D0E943C0EDC01CB018BA79CA7ADA7FC
:100D7000BEA720E030E040E85FE36BA57CA58DA531
:100D80009EA50E94B60D88232CF481E090E098ABDC
:100D90008FA73FC020E03FEF4FE757E46BA57CA54E
:100DA0008DA59EA50E94370E18164CF520E030E068
:100DB00040E251E4698D7A8D8B8D9C8D0E943C0EB2
:100DC000DC01CB01BC01CD010E94BB0DDC01CB01DC
:100DD00098AB8FA70FC080E991E09AAB89AB89A946
:100DE0009AA90197F1F79AAB89AB8FA598A90197BA
:100DF00098AB8FA78FA598A9892B69F714C06BA50D
:100E00007CA58DA59EA50E94BB0DDC01CB0198ABF6
:100E10008FA78FA598A99CAB8BAB8BA99CA9019799
:100E2000F1F79CAB8BAB85E290E025E230E0F90175
:100E300020812E7FFC01208385E290E025E230E0D6
:100E4000F90120812B7FFC0120838BE290E020E2DE
:100E5000FC01208385E290E025E230E0F901208169
:100E60002260FC01208380E090E0A0EAB0E48D8F56
:100E70009E8FAF8FB8A320E030E04AE755E46D8D38
:100E80007E8D8F8D98A10E943C0EDC01CB0189A341
:100E90009AA3ABA3BCA320E030E040E85FE369A1E4
:100EA0007AA18BA19CA10E94B60D88232CF481E02D
:100EB00090E09EA38DA33FC020E03FEF4FE757E4B3
:100EC00069A17AA18BA19CA10E94370E18164CF53E
:100ED00020E030E040E251E46D8D7E8D8F8D98A151
:100EE0000E943C0EDC01CB01BC01CD010E94BB0D78
:100EF000DC01CB019EA38DA30FC080E991E098A7F0
:100F00008FA38FA198A50197F1F798A78FA38DA123
:100F10009EA101979EA38DA38DA19EA1892B69F708
:100F200014C069A17AA18BA19CA10E94BB0DDC0118
:100F3000CB019EA38DA38DA19EA19AA789A789A568
:100F40009AA50197F1F79AA789A785E290E025E293
:100F500030E0F90120812D7FFC0120830000C05981
:100F6000DF4F0FB6F894DEBF0FBECDBFDF91CF913C
:100F70001F910F910895CF93DF93CDB7DEB76E9792
:100F80000FB6F894DEBF0FBECDBF8E8F8E8D8983D6
:100F90008981807F89838BE290E02BE230E0F90148
:100FA00020812F70FC0120838BE290E02BE230E067
:100FB000F90130812981232BFC01208385E290E017
:100FC00025E230E0F90120812E7FFC01208385E2BB
:100FD00090E025E230E0F90120812B7FFC012083A5
:100FE00085E290E025E230E0F90120812260FC01F9
:100FF000208380E090E0A0EAB0E48A839B83AC8306
:10100000BD8320E030E04AE755E46A817B818C8132
:101010009D810E943C0EDC01CB018C8B9D8BAE8BA5
:10102000BF8B20E030E040E85FE36C897D898E89EA
:101030009F890E94B60D88232CF481E090E0998F5F
:10104000888F3FC020E03FEF4FE757E46C897D89F0
:101050008E899F890E94370E18164CF520E030E0EB
:1010600040E251E46A817B818C819D810E943C0E2B
:10107000DC01CB01BC01CD010E94BB0DDC01CB0129
:10108000998F888F0FC080E991E09B8F8A8F8A8D1E
:101090009B8D0197F1F79B8F8A8F888D998D019792
:1010A000998F888F888D998D892B69F714C06C89E9
:1010B0007D898E899F890E94BB0DDC01CB01998FB0
:1010C000888F888D998D9D8F8C8F8C8D9D8D0197AC
:1010D000F1F79D8F8C8F85E290E025E230E0F901F9
:1010E00020812D7FFC0120838E8D8F708E8F8E8DC1
:1010F0008295807F8E8F8BE290E02BE230E0F901C9
:1011000020812F70FC0120838BE290E02BE230E005
:10111000F90130812E8D232BFC01208385E290E0A4
:1011200025E230E0F90120812E7FFC01208385E259
:1011300090E025E230E0F90120812B7FFC01208343
:1011400085E290E025E230E0F90120812260FC0197
:10115000208380E090E0A0EAB0E48E839F83A8879C
:10116000B98720E030E04AE755E46E817F818885C9
:1011700099850E943C0EDC01CB018A879B87AC8756
:10118000BD8720E030E040E85FE36A857B858C85A1
:101190009D850E94B60D88232CF481E090E09F8706
:1011A0008E873FC020E03FEF4FE757E46A857B859D
:1011B0008C859D850E94370E18164CF520E030E096
:1011C00040E251E46E817F81888599850E943C0EC2
:1011D000DC01CB01BC01CD010E94BB0DDC01CB01C8
:1011E0009F878E870FC080E991E0998B888B8889D3
:1011F00099890197F1F7998B888B8E859F85019747
:101200009F878E878E859F85892B69F714C06A8595
:101210007B858C859D850E94BB0DDC01CB019F8762
:101220008E878E859F859B8B8A8B8A899B89019768
:10123000F1F79B8B8A8B85E290E025E230E0F901A3
:1012400020812D7FFC01208300006E960FB6F8945C
:10125000DEBF0FBECDBFDF91CF910895CF93DF9357
:10126000CDB7DEB72E970FB6F894DEBF0FBECDBF59
:101270000E94120280E090E0A0E8BFE389839A8395
:10128000AB83BC8320E030E04AE755E469817A8192
:101290008B819C810E943C0EDC01CB018D839E835F
:1012A000AF83B88720E030E040E85FE36D817E8166
:1012B0008F8198850E94B60D88232CF481E090E000
:1012C0009A8789873FC020E03FEF4FE757E46D8161
:1012D0007E818F8198850E94370E18164CF520E08C
:1012E00030E040E251E469817A818B819C810E94E7
:1012F0003C0EDC01CB01BC01CD010E94BB0DDC0129
:10130000CB019A8789870FC080E991E09C878B8702
:101310008B859C850197F1F79C878B8789859A85BA
:1013200001979A87898789859A85892B69F714C0DF
:101330006D817E818F8198850E94BB0DDC01CB0180
:101340009A87898789859A859E878D878D859E85D1
:101350000197F1F79E878D8788E20E94BB0781E0A5
:101360000E94BB0786E00E94BB078EE00E94BB077D
:1013700080E80E94BB0700002E960FB6F894DEBFEF
:101380000FBECDBFDF91CF910895CF93DF93CDB73F
:10139000DEB780E80E94BB070000DF91CF9108957F
:1013A000CF93DF9300D0CDB7DEB789836A8389817D
:1013B000082E000C990B8230910589F0833091053D
:1013C0001CF4019739F01AC08330910569F0049735
:1013D00081F014C08A8181580E94BB070FC08A81A6
:1013E00081540E94BB070AC08A818D560E94BB07A8
:1013F00005C08A818D520E94BB07000000000F903B
:101400000F90DF91CF910895CF93DF93CDB7DEB7E3
:1014100081E00E94BB070000DF91CF910895CF9338
:10142000DF93CDB7DEB7A0970FB6F894DEBF0FBE3F
:10143000CDBF8E8F6F8F48A36F8D8E8D0E94D00988
:1014400088A189838981807F89838BE290E02BE268
:1014500030E0F90120812F70FC0120838BE290E0C5
:101460002BE230E0F9012081322F2981232BFC016E
:10147000208385E290E025E230E0F90120812160BF
:10148000FC01208385E290E025E230E0F901208133
:101490002B7FFC01208385E290E025E230E0F9011A
:1014A00020812260FC01208380E090E0A0EAB0E48B
:1014B0008A839B83AC83BD8320E030E04AE755E418
:1014C0006A817B818C819D810E943C0EDC01CB0175
:1014D0008C8B9D8BAE8BBF8B20E030E040E85FE3D0
:1014E0006C897D898E899F890E94B60D88232CF492
:1014F00081E090E0998F888F3FC020E03FEF4FE779
:1015000057E46C897D898E899F890E94370E181651
:101510004CF520E030E040E251E46A817B818C812F
:101520009D810E943C0EDC01CB01BC01CD010E94DB
:10153000BB0DDC01CB01998F888F0FC080E991E052
:101540009B8F8A8F8A8D9B8D0197F1F79B8F8A8F56
:10155000888D998D0197998F888F888D998D892B8A
:1015600069F714C06C897D898E899F890E94BB0DA3
:10157000DC01CB01998F888F888D998D9D8F8C8F01
:101580008C8D9D8D0197F1F79D8F8C8F85E290E07A
:1015900025E230E0F90120812D7FFC01208388A124
:1015A0008F7088A388A1082E000C990B82959295C4
:1015B000907F9827807F982788A38BE290E02BE28A
:1015C00030E0F90120812F70FC0120838BE290E054
:1015D0002BE230E0F9012081322F28A1232BFC01DE
:1015E000208385E290E025E230E0F901208121604E
:1015F000FC01208385E290E025E230E0F9012081C2
:101600002B7FFC01208385E290E025E230E0F901A8
:1016100020812260FC01208380E090E0A0EAB0E419
:101620008E839F83A887B98720E030E04AE755E49E
:101630006E817F81888599850E943C0EDC01CB01FB
:101640008A879B87AC87BD8720E030E040E85FE376
:101650006A857B858C859D850E94B60D88232CF438
:1016600081E090E09F878E873FC020E03FEF4FE70B
:1016700057E46A857B858C859D850E94370E1816F8
:101680004CF520E030E040E251E46E817F818885B6
:1016900099850E943C0EDC01CB01BC01CD010E946A
:1016A000BB0DDC01CB019F878E870FC080E991E0E5
:1016B000998B888B888999890197F1F7998B888B09
:1016C0008E859F8501979F878E878E859F85892B25
:1016D00069F714C06A857B858C859D850E94BB0D4A
:1016E000DC01CB019F878E878E859F859B8B8A8BA4
:1016F0008A899B890197F1F79B8B8A8B85E290E021
:1017000025E230E0F90120812D7FFC0120830000DB
:10171000A0960FB6F894DEBF0FBECDBFDF91CF917C
:101720000895CF93DF9300D000D0CDB7DEB7898383
:101730006A835C834B8311C08B819C81FC01808117
:10174000482F6A8189810E940F0A8B819C810196B2
:101750009C838B838A818F5F8A838B819C81FC0130
:101760008081882349F700000F900F900F900F9011
:10177000DF91CF910895CF93DF93CDB7DEB7279751
:101780000FB6F894DEBF0FBECDBF8A836B835D8337
:101790004C833F832E836B818A810E94D0098C8188
:1017A0009D81992384F48C819D81919581959109E6
:1017B0009D838C834FE151E06B818A810E94910B64
:1017C0008B818F5F8B8319828A81882319F08B81AB
:1017D000882319F40E94C50904C06B818A810E9484
:1017E000D0098E819F81059719F089818130D9F4C4
:1017F0008C819D8120E137E2B9010E947F0DCB01F0
:10180000C0969093250180932401809124019091AA
:101810002501482F6B818A810E940F0A8B818F5F7F
:101820008B8381E089838E819F81049719F0898160
:101830008130D9F58C819D8128EE33E0B9010E9479
:101840007F0DCB01909327018093260140912601C3
:10185000509127019A01ADECBCEC0E94930D969536
:1018600087959695879596958795880F991F9C01E2
:10187000220F331F220F331F820F931F9A01281B41
:10188000390BC901C09690932F0180932E0180914E
:101890002E0190912F01482F6B818A810E940F0A9F
:1018A0008B818F5F8B8381E089838E819F810397FA
:1018B00019F089818130D9F58C819D8124E630E051
:1018C000B9010E947F0DCB019093270180932601DF
:1018D00040912601509127019A01ADECBCEC0E9489
:1018E000930D969587959695879596958795880FEC
:1018F000991F9C01220F331F220F331F820F931F4A
:101900009A01281B390BC901C09690932B01809333
:101910002A0180912A0190912B01482F6B818A81A5
:101920000E940F0A8B818F5F8B8381E089838E8178
:101930009F81029719F089818130D9F58C819D8131
:101940002AE030E0B9010E947F0DCB01909327017E
:101950008093260140912601509127019A01ADEC18
:10196000BCEC0E94930D96958795969587959695D4
:101970008795880F991F9C01220F331F220F331F59
:10198000820F931F9A01281B390BC901C0969093AF
:101990002901809328018091280190912901482FE5
:1019A0006B818A810E940F0A8B818F5F8B8381E01C
:1019B00089838E819F81019719F089818130C1F4DB
:1019C0008C819D812AE030E0B9010E947F0DC09694
:1019D00090932D0180932C0180912C0190912D01E9
:1019E000482F6B818A810E940F0A8B818F5F8B83C6
:1019F0008E819F81069744F045E46B818A810E9425
:101A00000F0A8B818F5F8B83000027960FB6F894A7
:101A1000DEBF0FBECDBFDF91CF910895CF93DF938F
:101A200000D0CDB7DEB79A83898381EC90E0FC01CA
:101A3000108285EC90E029813A81232F3327FC0125
:101A4000208384EC90E02981FC01208382EC90E0EB
:101A500022EC30E0F90120812F73FC01208382EC1D
:101A600090E022EC30E0F90120812660FC01208327
:101A700081EC90E021EC30E0F90120812861FC014B
:101A8000208381EC90E021EC30E0F90120812B7F74
:101A9000FC01208300000F900F90DF91CF910895FB
:101AA000CF93DF931F92CDB7DEB7898386EC90E0AA
:101AB0002981FC01208300000F90DF91CF910895D0
:101AC000CF93DF9300D0CDB7DEB79A8389830BC065
:101AD00089819A81FC0180810E94500D89819A81BF
:101AE00001969A83898389819A81FC018081882368
:101AF00079F700000F900F90DF91CF91089597FB39
:101B0000072E16F4009407D077FD09D00E94A20D8D
:101B100007FC05D03EF4909581959F4F08957095F0
:101B200061957F4F0895A29FB001B39FC001A39F0D
:101B3000700D811D1124911DB29F700D811D112406
:101B4000911D0895AA1BBB1B51E107C0AA1FBB1F13
:101B5000A617B70710F0A61BB70B881F991F5A9539
:101B6000A9F780959095BC01CD0108950E94EA0DDA
:101B700008F481E008950E94160E88F09F5798F0AF
:101B8000B92F9927B751B0F0E1F0660F771F881F82
:101B9000991F1AF0BA95C9F714C0B13091F00E949C
:101BA000300EB1E008950C94300E672F782F8827FF
:101BB000B85F39F0B93FCCF3869577956795B395C3
:101BC000D9F73EF490958095709561957F4F8F4F32
:101BD0009F4F0895990F0008550FAA0BE0E8FEEFFC
:101BE00016161706E807F907C0F012161306E407E1
:101BF000F50798F0621B730B840B950B39F40A26DA
:101C000061F0232B242B252B21F408950A2609F4B7
:101C1000A140A6958FEF811D811D089557FD905815
:101C2000440F551F59F05F3F71F04795880F97FBA0
:101C3000991F61F09F3F79F087950895121613065A
:101C40001406551FF2CF4695F1DF08C01616170689
:101C50001806991FF1CF86957105610508940895BE
:101C6000E894BB2766277727CB0197F908950E9450
:101C7000EA0D08F48FEF08950E944F0E0C94C00EE9
:101C80000E94B20E38F00E94B90E20F0952311F098
:101C90000C94A90E0C94AF0E11240C94310E0E94DA
:101CA0000E0E70F3959FC1F3950F50E0551F629F84
:101CB000F001729FBB27F00DB11D639FAA27F00DA5
:101CC000B11DAA1F649F6627B00DA11D661F829FCC
:101CD0002227B00DA11D621F739FB00DA11D621FB1
:101CE000839FA00D611D221F749F3327A00D611DCE
:101CF000231F849F600D211D822F762F6A2F1124B0
:101D00009F5750409AF0F1F088234AF0EE0FFF1FE2
:101D1000BB1F661F771F881F91505040A9F79E3F39
:101D2000510580F00C94A90E0C94310E5F3FE4F342
:101D3000983ED4F3869577956795B795F795E7958F
:101D40009F5FC1F7FE2B880F911D9695879597F998
:101D5000089597F99F6780E870E060E008959FEF2D
:101D600080EC089500240A94161617061806090632
:101D7000089500240A941216130614060506089501
:101D8000092E0394000C11F4882352F0BB0F40F489
:101D9000BF2B11F460FF04C06F5F7F4F8F4F9F4FC9
:101DA0000895AEE0B0E0E7EDFEE00C9492110D89ED
:101DB0001E8986E08C831A8309838FEF9FE79E83B9
:101DC0008D83AE01475E5F4F6F89788DCE0101969E
:101DD0000E94F30EEF81F885E00FF11F10822E961E
:101DE000E4E00C94AE11ABE0B0E0E9EFFEE00C945F
:101DF00084116C017B018A01FC01178216828381A8
:101E000081FFCCC1CE0101963C01F6019381F7011F
:101E100093FD859193FF81917F01882309F4BAC1D5
:101E2000853239F493FD859193FF81917F0185324D
:101E300029F4B60190E00E94EA10E7CF912C212C02
:101E4000312CFFE1F315D8F08B3279F038F4803281
:101E500079F08332A1F4232D20611DC08D3261F011
:101E6000803369F4232D216016C0832D8260382EC3
:101E7000E32DE4603E2E2AC0F32DF8601DC037FC30
:101E80002DC020ED280F2A3040F08E32B9F436FCF8
:101E900081C1232D2064322E19C036FE06C08AE08F
:101EA000989E200D1124922E11C0EAE02E9E200D46
:101EB0001124222EF32DF0623F2E08C08C3621F41F
:101EC000832D8068382E02C0883641F4F70193FDD7
:101ED000859193FF81917F018111B3CF982F9F7DD1
:101EE0009554933028F40C5F1F4F9FE399830DC0E6
:101EF000833631F0833771F0833509F059C021C042
:101F0000F801808189830E5F1F4F88248394912C70
:101F1000530113C02801F2E04F0E511CF801A080BC
:101F2000B18036FE03C0692D70E002C06FEF7FEF15
:101F3000C5010E94DF104C018201F32DFF773F2E77
:101F400016C0280122E0420E511CF801A080B18089
:101F500036FE03C0692D70E002C06FEF7FEFC50150
:101F60000E94D4104C01F32DF0683F2E820133FC07
:101F70001BC0822D90E088169906B0F4B60180E26D
:101F800090E00E94EA102A94F4CFF50137FC859185
:101F900037FE81915F01B60190E00E94EA102110A6
:101FA0002A9421E0821A91088114910471F7E8C003
:101FB000843611F0893641F5F80137FE07C060819B
:101FC0007181828193810C5F1F4F08C06081718194
:101FD000072E000C880B990B0E5F1F4FF32DFF7619
:101FE0003F2E97FF09C090958095709561957F4F22
:101FF0008F4F9F4FF0683F2E2AE030E0A3010E94F0
:102000002611882E861845C0853731F4232D2F7E62
:10201000B22E2AE030E025C0932D997FB92E8F365D
:10202000C1F018F4883579F0B5C0803719F08837D9
:1020300021F0B0C0E92FE061BE2EB4FE0DC0FB2D33
:10204000F460BF2E09C034FE0AC0292F2660B22ECC
:1020500006C028E030E005C020E130E002C020E109
:1020600032E0F801B7FE07C06081718182819381FF
:102070000C5F1F4F06C06081718180E090E00E5FB1
:102080001F4FA3010E942611882E8618FB2DFF7773
:102090003F2E36FE0DC0232D2E7FA22E891458F41C
:1020A00034FE0BC032FC09C0832D8E7EA82E05C0E5
:1020B000B82CA32C03C0B82C01C0B92CA4FE0FC0AF
:1020C000FE01E80DF11D8081803321F49A2D997E67
:1020D000A92E09C0A2FE06C0B394B39404C08A2DF1
:1020E000867809F0B394A3FC11C0A0FE06C0B21418
:1020F00088F4280C922C9B180EC0B21460F4B60120
:1021000080E290E00E94EA10B394F7CFB21418F482
:102110002B1802C0982C212CA4FE10C0B60180E31D
:1021200090E00E94EA10A2FE17C0A1FC03C088E75D
:1021300090E002C088E590E0B6010CC08A2D867858
:1021400059F0A1FE02C08BE201C080E2A7FC8DE243
:10215000B60190E00E94EA10891438F4B60180E3D9
:1021600090E00E94EA109A94F7CF8A94F301E80D68
:10217000F11D8081B60190E00E94EA108110F5CF38
:10218000222009F442CEB60180E290E00E94EA10DB
:102190002A94F6CFF6018681978102C08FEF9FEFD8
:1021A0002B96E2E10C94A011FC0105906150704067
:1021B0000110D8F7809590958E0F9F1F0895FC0110
:1021C0006150704001900110D8F7809590958E0F66
:1021D0009F1F08950F931F93CF93DF93FB012381DC
:1021E00021FD03C08FEF9FEF2CC022FF16C0468158
:1021F0005781248135814217530744F4A081B1816E
:102200009D012F5F3F4F318320838C93268137813F
:102210002F5F3F4F3783268314C08B01EC01FB01F6
:102220000084F185E02D0995892BE1F6D8011696F9
:102230008D919C911797019617969C938E93169764
:10224000CE01DF91CF911F910F910895FA01AA2736
:10225000283051F1203181F1E8946F936E7F6E5FE9
:102260007F4F8F4F9F4FAF4FB1E03ED0B4E03CD097
:10227000670F781F891F9A1FA11D680F791F8A1F7A
:10228000911DA11D6A0F711D811D911DA11D20D0E1
:1022900009F468943F912AE0269F11243019305D9B
:1022A0003193DEF6CF010895462F4770405D41938C
:1022B000B3E00FD0C9F7F6CF462F4F70405D4A33D9
:1022C00018F0495D31FD4052419302D0A9F7EACFA1
:1022D000B4E0A6959795879577956795BA95C9F7D0
:1022E00000976105710508959B01AC010A2E0694C3
:1022F0005795479537952795BA95C9F7620F731F7C
:10230000841F951FA01D08952F923F924F925F92B8
:102310006F927F928F929F92AF92BF92CF92DF92F5
:10232000EF92FF920F931F93CF93DF93CDB7DEB75A
:10233000CA1BDB0B0FB6F894DEBF0FBECDBF0994EE
:102340002A88398848885F846E847D848C849B8445
:10235000AA84B984C884DF80EE80FD800C811B8153
:10236000AA81B981CE0FD11D0FB6F894DEBF0FBE82
:0A237000CDBFED010895F894FFCFF2
:10237A0052617720646174613A20253034640052D6
:10238A00617720646174613A202530346409002D34
:02239A00000041
:00000001FF
